:100000000C9434000C9449000C9449000C94490061
:100010000C9449000C9449000C9449000C9449003C
:100020000C9449000C9449000C9449000C9449002C
:100030000C9449000C9449000C9449000C9449001C
:100040000C9449000C9449000C9449000C9449000C
:100050000C9449000C9449000C9449000C944900FC
:100060000C9449000C94490011241FBECFEFD8E036
:10007000DEBFCDBF11E0A0E0B1E0EEE4F1E002C0F0
:1000800005900D92AC30B107D9F70E949C000C94FA
:10009000A5000C9400002B9A8AE08A95F1F700C025
:1000A0002B988FE39FE10197F1F700C000000895BE
:1000B0008FEF8AB91BB8239A249A2C982B988FE536
:1000C0009AEE0197F1F700C0000081E08BB90E9421
:1000D0004B0086E08BB90E944B008FE08BB90C94EB
:1000E0004B002C9A8BB90E944B002C988FE39FE118
:1000F0000197F1F700C0000008950F931F93CF936D
:10010000DF93EC0110E000E0FE0101900020E9F730
:100110003197EC1BFD0B0E171F0728F0DF91CF91D5
:100120001F910F910895FE01E00FF11F80810E9441
:1001300071000F5F1F4FE8CF0E94580080E091E0F0
:0E0140000E947D0090E080E00895F894FFCFCB
:0C014E0048656C6C6F20576F726C640089
:00000001FF
